:100000000C94A8010C94D1010C94D1010C94D10151
:100010000C94D1010C94D1010C94D1010C94D10118
:100020000C94D1010C94D1010C94D1010C94721355
:100030000C94D1010C94D1010C94D1010C94D101F8
:100040000C94D1010C94D1010C94D1010C94D101E8
:100050000C94D1010C94D1010C94D1010C94D101D8
:100060000C94D1010C94D1016E616E00696E660032
:1000700000407A10F35A00A0724E18090010A5D45F
:10008000E80000E87648170000E40B54020000CABC
:100090009A3B000000E1F505000080969800000002
:1000A00040420F000000A086010000001027000061
:1000B0000000E803000000006400000000000A00E7
:1000C000000000000100000000002C76D888DC67EA
:1000D0004F0823DFC1DFAE59E1B1B796E5E3E45342
:1000E000C63AE651997696E8E6C28426EB898C9B5F
:1000F00062ED407C6FFCEFBC9C9F40F2BAA56FA5FF
:10010000F490055A2AF75C936B6CF9676DC11BFC80
:10011000E0E40D47FEF520E6B500D0ED902E03009B
:10012000943577050080841E080000204E0A0000E8
:1001300000C80C333333330F986E12831141EF8DA7
:100140002114893BE65516CFFEE6DB18D1844B38E7
:100150001BF77C1D901DA4BBE424203284725E2218
:100160008100C9F124ECA1E53D270000000000005A
:10017000002F00000007000700147F147F14242ABA
:100180007F2A1232340816263649552250000503BC
:100190000000001C2241000041221C0014083E08FF
:1001A0001408083E0808000050300010101010100D
:1001B000006060000020100804023E5149453E00E6
:1001C000427F400042615149462141454B3118145C
:1001D000127F1027454545393C4A4949300171098C
:1001E00005033649494936064949291E0036360075
:1001F0000000563600000814224100141414141490
:1002000000412214080201510906324959513E7E2B
:100210001111117E7F494949363E414141227F41BA
:1002200041221C7F494949417F090909013E414951
:10023000497A7F0808087F00417F41002040413F04
:10024000017F081422417F404040407F020C027F22
:100250007F0408107F3E4141413E7F090909063E67
:100260004151215E7F091929464649494931010119
:100270007F01013F4040403F1F2040201F3F40384A
:10028000403F63140814630708700807615149452B
:1002900043007F414100552A552A550041417F00C6
:1002A00004020102044040404040000102040020DA
:1002B000545454787F4844443838444444203844A3
:1002C00044487F3854545418087E0901020C525295
:1002D000523E7F0804047800447D40002040443DA5
:1002E000007F1028440000417F40007C04180478FF
:1002F0007C0804047838444444387C1414140808F6
:100300001414187C7C080404084854545420043FF6
:100310004440203C4040207C1C2040201C3C40307D
:10032000403C44281028440C5050503C4464544CE9
:1003300044007F3E1C08081C3E7F00087C7E7C0831
:10034000103E7E3E103E3E3E3E3E007F3E1C08007C
:1003500011241FBECFEFD8E0DEBFCDBF14BE0FB655
:10036000F894A89580916000886180936000109255
:1003700060000FBE16E0A0E0B1E0ECE9F7E302C0D8
:1003800005900D92AE38B107D9F726E0AEE8B6E099
:1003900001C01D92A03AB207E1F70E9475120C94B9
:1003A000CC1B0C940000EAE7F0E080818068808339
:1003B000808187608083089581E480937C0081EE52
:1003C00094E00197F1F700C0000098E060E070E071
:1003D000EAE7F0E0A8E7B0E0808180648083808174
:1003E00086FDFDCF2D913C911197620F731F9150A7
:1003F00099F780E090E00E94EC1421E73DE342E4AD
:1004000050E40E94A31520E030E040EA50E40E944E
:10041000A31520E030E040E059E30E94A3150895C1
:1004200080E480937C0081EE94E00197F1F700C0B6
:10043000000098E060E070E0EAE7F0E0A8E7B0E0F4
:10044000808180648083808186FDFDCF2D913C91E9
:100450001197620F731F915099F780E090E00E940E
:10046000EC1420E030E040E85DE30E94A31520E0BA
:1004700030E040EA50E40E94A3152DEC3CEC4CE443
:1004800054E40E944B14089582E480937C0081EE32
:1004900094E00197F1F700C0000098E060E070E0A0
:1004A000EAE7F0E0A8E7B0E08081806480838081A3
:1004B00086FDFDCF2D913C911197620F731F9150D6
:1004C00099F780E090E00E94EC1420E030E040E8F2
:1004D0005DE30E94A31520E030E040EA50E40E9472
:1004E000A3152DEC3CEC4CE454E40E944B1408950D
:1004F00083E480937C0081EE94E00197F1F700C0E3
:10050000000098E060E070E0EAE7F0E0A8E7B0E023
:10051000808180648083808186FDFDCF2D913C9118
:100520001197620F731F915099F780E090E00E943D
:10053000EC142EE632E143E851E40E944B140E9491
:10054000BD14CB0108952F923F924F925F926F920C
:100550007F928F929F92AF92BF92CF92DF92EF9253
:10056000FF920F931F93CF93DF93CDB7DEB76497BE
:100570000FB6F894DEBF0FBECDBFA62E972E882EE5
:10058000292E722E632E542E452E8EE896E00E9460
:10059000B50940E060E08EE896E00E949F084F9227
:1005A0005F926F927F922F928F929F92AF9288E18B
:1005B00091E09F938F938EE896E09F938F930E9494
:1005C000380B83E691E00E94A4132F928F929F92A2
:1005D000AF924F925F926F927F928AE791E09F93E2
:1005E0008F930E94B31388E991E00E94A4130FB681
:1005F000F894DEBF0FBECDBF4C99FECF4C9BFECF13
:100600008EE896E00E94B50920E030E0A9016A2D4D
:10061000792D882D922D0E944614882319F03324B9
:10062000339409C0312CA12C912C6894882486F82D
:100630006894222426F883E284BD85B5816085BD57
:100640008DE0809381001B821C821D821E82B12C52
:100650001F82188619861A8610E0F12C188A01E08C
:10066000BB86FA821983B72C162D5C8A4B8A3320FD
:1006700001F10E9410022B013C0123E333E343E725
:100680005FE36A2D792D882D922D0E94A3159B0181
:10069000AC01C301B2010E94461488230CF002C2CF
:1006A00088B58F3F09F012C2FDC188B5811112C211
:1006B00021C00E94DC012B013C012DEC3CEC4CE400
:1006C0005DE3FC89EB896B2D712F8F2F9E2F0E948C
:1006D000D9139B01AC01C301B2010E9446148823C7
:1006E0000CF000C288B58F3F09F0F8C1FBC188B596
:1006F000811106C280919F06882309F4B8CF109219
:100700009F0685B1802785B939813F5F39833C33A6
:1007100020F08A818F5F8A8319829A819C3320F02E
:10072000AB85AF5FAB871A820E94DC016C877D8747
:100730008E879F870E941002762E672E582E492E94
:100740000E947802BC0180E090E00E94EC14F62E3A
:10075000C72ED82EE92E6B817C818D819E810E94CF
:10076000EC146B837C838D839E8320E030E04AE72A
:1007700054E4672D762D852D942D0E94A3159B01A1
:10078000AC016B817C818D819E810E94DA130E9475
:10079000BD146B837C838D839E836F81788589856F
:1007A0009A850E94EC146F83788789879A87272D12
:1007B000362D452D542DFC85ED85AE85BF856F2FDB
:1007C0007E2F8A2F9B2F0E94A31520E030E04AE75E
:1007D00054E40E94A3159B01AC016F817885898543
:1007E0009A850E94DA130E94BD146F8378878987E7
:1007F0009A878EE896E00E94B50940E060E08EE8B6
:1008000096E00E949F08EF92DF92CF92FF921F9294
:10081000B981BF931F92EA81EF931F92FB85FF93EB
:100820006B817C818D819E8120E13EE040E050E043
:100830000E94A0193F932F932B892F933C893F93BC
:100840001F93BF928F858F939E859F93AD85AF93A6
:10085000BC85BF932F928F929F92AF924F925F92DF
:100860006F927F92A5EBB1E0BF93AF938EE896E0D5
:100870009F938F930E94380B88B50FB6F894DEBF14
:100880000FBECDBFEF92DF92CF92FF921F928F9358
:100890001F9239813F931F928A818F931F929B856C
:1008A0009F934F925F926F927F92AF85AF93BE8579
:1008B000BF93ED85EF93FC85FF93AEEFB1E0BF935F
:1008C000AF930E94B3130FB6F894DEBF0FBECDBF37
:1008D0003320E9F064E272E08EE896E00E94230B98
:1008E0007C856D859E858F85272F362F492F582F24
:1008F000FC89EB896B2D712F8F2F9E2F0E94461440
:10090000880F880B382E30223026702E2CC06CE2D7
:1009100072E08EE896E00E94230B2DEC3CEC4CEC50
:100920005DE36A2D792D882D922D0E94A3159B01E0
:10093000AC01672D762D852D942D0E9446148823B9
:1009400084F0272D362D452D542D6A2D792D882D97
:10095000922D0E944614880F880B382E3022702E5C
:1009600002C0088B712C4C9BCFC020E030E044E3E8
:1009700052E46F2D7C2D8D2D9E2D0E949E151816F4
:1009800074F003C032E0388B712C711070CE7B2C68
:10099000BB84612E19815C88FA804B8809C07B2C4E
:1009A000BB84612E19815C88FA804B8882E0888B39
:1009B00085B585BD14BC1092810028985F9A8EE899
:1009C00096E00E94B50940E060E08EE896E00E9463
:1009D0009F081F921F931F92FF921F92BF920F2E8C
:1009E000F0E1CF2EFEE0DF2EE12CF12CF02D6F8117
:1009F000788589859A85A70196010E94A0193F9361
:100A00002F936B817C818D819E81A70196010E942D
:100A1000A0193F932F9384E392E09F938F938EE8E6
:100A200096E09F938F930E94380B0FB6F894DEBF29
:100A30000FBECDBFB889B23059F0B33081F0B130BC
:100A4000A1F461E772E08EE896E00E94230B0DC0EE
:100A50006EE772E08EE896E00E94230B06C06DE818
:100A600072E08EE896E00E94230B4C9BFECF4C99DF
:100A7000FECF5F9889E992E00E94A4132F928F9293
:100A80009F92AF924F925F926F927F9287EA92E02D
:100A90009F938F930E94B3130FB6F894DEBF0FBEDF
:100AA000CDBF49C026E636E646E85FE36A2D792DDC
:100AB000882D922D0E94A3159B01AC01C301B201A8
:100AC0000E949E1518160CF4F0CD14CE88B58F5FD9
:100AD00088BD10CE88B5815088BD0CCE88B58F5F9B
:100AE00088BD08CEA3019201FC89EB896B2D712F83
:100AF0008F2F9E2F0E94461488230CF4F8CDFACD38
:100B000088B5815088BDF6CD20E030E044E352E462
:100B10006F2D7C2D8D2D9E2D0E949E1518160CF488
:100B200031CF7B2CBB84612E19815C88FA804B8885
:100B3000F3E0F88B3DCF64960FB6F894DEBF0FBE9E
:100B4000CDBFDF91CF911F910F91FF90EF90DF907C
:100B5000CF90BF90AF909F908F907F906F905F905D
:100B60004F903F902F9008952F923F924F925F9217
:100B70006F927F928F929F92AF92BF92CF92DF92AD
:100B8000EF92FF920F931F93CF93DF93CDB7DEB712
:100B9000A3970FB6F894DEBF0FBECDBF662E572EBB
:100BA000282E392E2B8F642F70E080E090E00E9479
:100BB000EE146F8B788F898F9A8F2AE037ED43EE92
:100BC0005FE30E94A315462E172F082FB92E6B8BBB
:100BD0007C8B8D8B9E8B8EE896E00E94B50940E061
:100BE00060E08EE896E00E949F08BF920F931F93EB
:100BF0004F923F922F925F926F9288E191E09F9384
:100C00008F938EE896E09F938F930E94380B83E634
:100C100091E00E94A4133F922F925F926F92BF9235
:100C20000F931F934F928AE791E09F938F930E94B7
:100C3000B31388E991E00E94A4130FB6F894DEBFC5
:100C40000FBECDBF4C99FECF4C9BFECF8EE896E0F9
:100C50000E94B5090E94DC016C8F7D8F8E8F9F8F63
:100C600083E284BD85B5816085BD8DE08093810080
:100C70001D821E821F82188619861A861B861C8674
:100C8000712CE12CF12C1D861A8AFAA2EBA20E948B
:100C900010026B017C0123E333E343E75FE3662D3E
:100CA000752D822D932D0E94A3159B01AC01C701C8
:100CB000B6010E94461488230CF0E9C188B58F3F25
:100CC00009F0E1C1E4C188B58111F5C180919F06A9
:100CD0008823E9F210929F069D859F5F9D8785B1CD
:100CE000A1E08A2785B9BBA1BF5FBBA3BC3320F0BD
:100CF000EAA1EF5FEAA31BA2FAA1FC3310F0739400
:100D00001AA20E94DC01A62E972E882EF92E0E9490
:100D10001002E62ED72EC82E99830E947802BC01BD
:100D200080E090E00E94EC146E877F87888B998B1F
:100D30006D817E818F8198850E94EC146D837E8306
:100D40008F83988720E030E04AE754E4A9816E2D34
:100D50007D2D8C2D9A2F0E94A3159B01AC016D81D6
:100D60007E818F8198850E94DA130E94BD146D8365
:100D70007E838F83988769857A858B859C850E9481
:100D8000EC1469877A878B879C8789812E2D3D2D6E
:100D90004C2D582F6A2D792D882D9F2D0E94A3153B
:100DA00020E030E04AE754E40E94A3159B01AC0127
:100DB00069857A858B859C850E94DA130E94BD1413
:100DC00069877A878B879C8740E060E08EE896E0B1
:100DD0000E949F0889898F9398899F93AF85AF93CD
:100DE000BE85BF931F92EBA1EF931F92FAA1FF93D1
:100DF0001F927F928E898F939D899F93AC89AF9329
:100E0000BB89BF93FF928F929F92AF923F922F9296
:100E10005F926F92E981EF93CF92DF92EF92A5EC10
:100E2000B2E0BF93AF938EE896E09F938F930E94BA
:100E3000380B88B5F989FF9398899F93AF85AF9355
:100E4000BE85BF931F928F931F92EBA1EF931F92CA
:100E5000FAA1FF931F927F9289818F93CF92DF92A5
:100E6000EF92FF928F929F92AF92AEEFB1E0BF935D
:100E7000AF930E94B3130FB6F894DEBF0FBECDBF81
:100E80002A2D392D482D5F2DBB89AC89ED88DE8850
:100E90006B2F7A2F8E2D9D2D0E944614882324F4CB
:100EA00091E09A8BE12C02C0EE24E3944C9903C0AC
:100EB000A3E0AA8BE12CBD85BC33A0F12A2D392DEE
:100EC000482D5F2DBC8DAD8DDE8CCF8C6B2F7A2F96
:100ED0008D2D9C2D0E94D91369837A838B839C83EB
:100EE0002DEC3CEC4CE45EE36F89788D898D9A8D16
:100EF0000E94A3159B01AC0169817A818B819C8141
:100F00000E949E1518164CF4AC8E9D8E8E8EFF8E10
:100F1000E4E0EA8B1D86E12C05C0AC8E9D8E8E8EA2
:100F2000FF8E1D86FB8D7F1608F0C9C020E030E0E3
:100F300044E352E4BE85AF85F888D9886B2F7A2FB9
:100F40008F2D9D2D0E949E1518164CF003C082E037
:100F50008A8BE12CE1109BCEFAA0EBA004C0FAA092
:100F6000EBA092E09A8B85B585BD14BC10928100F0
:100F700028985F9A8EE896E00E94B50940E060E00C
:100F80008EE896E00E949F081F92EF921F92FF92B8
:100F90001F927F920F2EF0E1CF2EFEE0DF2EE12C8C
:100FA000F12CF02D69857A858B859C85A7019601AA
:100FB0000E94A0193F932F936D817E818F81988528
:100FC000A70196010E94A0193F932F9386E093E01A
:100FD0009F938F938EE896E09F938F930E94380B98
:100FE0000FB6F894DEBF0FBECDBFBA89B330D1F0D3
:100FF00028F4B13049F0B23071F028C0EA89E43009
:10100000C1F0E530E9F022C060E473E08EE896E0DC
:101010000E94230B1BC06EE772E08EE896E00E94F0
:10102000230B14C06DE872E08EE896E00E94230B5B
:101030000DC06CE473E08EE896E00E94230B06C0BE
:1010400065E573E08EE896E00E94230B4C99FECF95
:101050004C9BFECF5F9889E992E00E94A4133F92D7
:101060002F925F926F92BF920F931F934F928AE7D6
:1010700091E09F938F930E94B3130FB6F894DEBF55
:101080000FBECDBF32C088B58F5F88BD1FCE26E6AC
:1010900036E646E85FE3662D752D822D932D0E947E
:1010A000A3159B01AC01C701B6010E949E1518163D
:1010B0000CF409CE0BCE88B5815088BD07CE20E058
:1010C00030E044E352E4BE85AF85F888E9886B2FB1
:1010D0007A2F8F2D9E2D0E949E1518160CF437CF57
:1010E000FAA0EBA095E09A8B3ECFA3960FB6F894AA
:1010F000DEBF0FBECDBFDF91CF911F910F91FF904B
:10110000EF90DF90CF90BF90AF909F908F907F90A7
:101110006F905F904F903F902F90089570E09B01EB
:10112000220F331F620F731F660F771F24E5429F44
:10113000600D711D1124FC01708B6787089524E5F3
:10114000429FA0011124460F511DFC01508B47877F
:1011500008950F931F93CF93DF93FC01A385B4856C
:101160005E9181E090E09C01038002C0220F331F5A
:101170000A94E2F7252B2C93A185B2855E919C0100
:10118000028002C0220F331F0A94E2F7252B2C9312
:10119000A581B6812C91008002C0880F991F0A9406
:1011A000E2F7809582238C933281A185B28541300C
:1011B00059F42C9181E090E002C0880F991F3A9574
:1011C000E2F7822B8C938CC02C9181E090E002C0DE
:1011D000880F991F3A95E2F7809582238C9380C0FF
:1011E0002381C385D485AB01082E02C05595479550
:1011F0000A94E2F740FF0BC048818D0102C0000F46
:10120000111F2A95E2F79801242B28830BC03881FF
:10121000AD0102C0440F551F2A95E2F7242F2095F7
:1012200023232883C585D68548819D01048002C07B
:10123000220F331F0A94E2F7242B2883C585D68515
:101240003881AD01048002C0440F551F0A94E2F7B3
:10125000242F209523232883019710F6A581B6819A
:101260004C9181E090E09C01008002C0220F331F6E
:101270000A94E2F7242B2C93A385B4853E91AC010C
:10128000038002C0440F551F0A94E2F7242F2095D3
:1012900023232C93A185B2853E91AC01028002C02C
:1012A000440F551F0A94E2F7242F209523232C93F3
:1012B000A385B4854C919C01038002C0220F331F8B
:1012C0000A94E2F7242B2C93A185B2852C910280FD
:1012D00002C0880F991F0A94E2F7822B8C9306C0F4
:1012E00087E090E070E0A1E0B0E07ACFDF91CF91AD
:1012F0001F910F9108950F931F93CF93DF93EC01EC
:10130000AB018B0116950795169507959801A7E8EF
:10131000B1E60E94C2199695879596958795969500
:10132000879564E5689F9001699F300D1124421BE9
:10133000530B642F606840E0CE010E94A908980119
:10134000A7E8B1E60E94C21996958795969587956C
:1013500096958795682F606440E0CE010E94A908A9
:10136000DF91CF911F910F9108950F931F93CF930A
:10137000DF938C01FC01108A178660E070E00E9408
:101380007B09C8EFD1E041E060E0C8010E94A908F4
:101390002197C9F7DF91CF911F910F9108956F9217
:1013A0007F928F92AF92BF92CF92EF92FF920F9364
:1013B000CF93DF93CDB7DEB73C01DC0116967C936B
:1013C0006E9315974C9318963C932E9317971196FE
:1013D0000C9311971A96FC92EE9219971296CC9252
:1013E00012971C96BC92AE921B9713968C921397F1
:1013F0008E859F851E969C938E931D978889149643
:101400008C931497F901608181E090E0AC0102C0F7
:10141000440F551F0A95E2F7462B40831796ED912E
:10142000FC91189742919C0111960C90119702C063
:10143000220F331F0A94E2F7242B20831596ED9197
:10144000FC91169742919C010C9002C0220F331F11
:101450000A94E2F7242B20831996ED91FC911A97B8
:1014600042919C0112960C90129702C0220F331FDA
:101470000A94E2F7242B20831B96ED91FC911C9794
:1014800042919C0113960C90139702C0220F331FB8
:101490000A94E2F7242B20831D96ED91FC911E9770
:1014A00042919C0114960C9002C0220F331F0A94A3
:1014B000E2F7242B2083A5EABEE01197F1F700C0E4
:1014C0000000D3011796ED91FC9118973081AC0183
:1014D00011960C90119702C0440F551F0A94E2F721
:1014E000242F209523232083EFE7FEE33197F1F7A4
:1014F00000C000001796ED91FC91189740819C0167
:1015000011960C90119702C0220F331F0A94E2F734
:10151000242B20831596ED91FC91169720810C9039
:1015200002C0880F991F0A94E2F780958223808376
:1015300040E061E2C3010E94A90840E068ECC301F9
:101540000E94A90840E066E0C3010E94A90840E0AB
:1015500063E1C3010E94A90840E060E2C3010E9468
:10156000A90840E06CE0C3010E94A908C3010E94E1
:10157000B50940E061E2C3010E94A90840E060ECC7
:10158000C3010E94A90840E060E2C3010E94A908CB
:10159000DF91CF910F91FF90EF90CF90BF90AF90E0
:1015A0008F907F906F900895EF92FF920F931F930B
:1015B000CF93DF93FC016A3071F4878590899C0199
:1015C0002C5A3F4F64E570E00E948C19281B390BA0
:1015D000308B278731C0C62F8C01678570890E94A8
:1015E0007B096C2F70E0EB01CC0FDD1FCC0FDD1FF2
:1015F0006C0F7D1FE12CF12CEB01C05AD109FE01CB
:10160000EE0DFF1DE659FE4F6491660F41E0C801E3
:101610000E94A9088FEFE81AF80AE5E0EE16F10437
:1016200071F741E060E0C8010E94A908F8018785D0
:1016300090890696908B8787DF91CF911F910F91AC
:10164000FF90EF9008950F931F93CF93DF93EB01DB
:101650006881662341F08C012196C8010E94D40A5A
:1016600069916111FACFDF91CF911F910F91089588
:10167000CF93DF93CDB7DEB7C056D1090FB6F8943C
:10168000DEBF0FBECDBF9E0127593F4FA9964EAD7D
:101690005FADA9976FE570E0CE0101960E94421BF5
:1016A000BE016F5F7F4FA7968EAD9FADA7970E943B
:1016B000230BC05ADF4F0FB6F894DEBF0FBECDBF6D
:1016C000DF91CF9108958F92AF92BF92CF92EF9218
:1016D000FF920F9385E08F931F9285E28F9368941A
:1016E000882482F80F2EF5E2AF2EB12CF02D0F2EAC
:1016F000F3E0CF2EF02D0F2EF5E2EF2EF12CF02D92
:1017000001E02BE230E040E06BE270E08EE896E032
:101710000E94CF0940E060E08EE896E00E949F08BA
:101720008EE593E09F938F938EE896E09F938F933F
:101730000E94380B2FEF8AE197EB215080409040B8
:10174000E1F700C000008DB79EB707960FB6F8947A
:101750009EBF0FBE8DBF0F91FF90EF90CF90BF90B7
:10176000AF908F900895FF920F931F93CF93DF93C5
:10177000D82F8B01F42EC52F8EE896E00E94B50974
:1017800040E060E08EE896E00E948E08B8018EE8A6
:1017900096E00E94230B0F2D1C2FC0E0CF5F4C2F33
:1017A00061E08EE896E00E948E08F80161917191E7
:1017B0008F018EE896E00E94230BC53079F741E057
:1017C0004D0F60E08EE896E00E948E086EE973E0AF
:1017D0008EE896E00E94230BDF91CF911F910F912D
:1017E000FF900895EF92FF920F931F93CF938C0178
:1017F0007B01AB01BC0180E00E94B30B4C9B25C078
:10180000C0E04B990AC0C43020F107C04B9BFECF0B
:10181000A701B8018C2F0E94B30B4A990AC0C111CD
:101820001AC007C04A9BFECFA701B8018C2F0E94A7
:10183000B30B2FE78AE196E0215080409040E1F71A
:1018400000C000004C99DDCF01C0C0E04C9BFECF32
:1018500004C0CF5FDBCFC150E5CF8C2FCF911F915C
:101860000F91FF90EF900895CF92DF92FF920F9328
:101870001F93CF93DF936C01D42F152F062FF72ED4
:10188000C22F8EE896E00E94B50940E060E08EE845
:1018900096E00E948E08B6018EE896E00E94230B27
:1018A00042E060E08EE896E00E948E08FF920F937F
:1018B0001F93DF9380EA93E09F938F938EE896E0E7
:1018C0009F938F930E94380B43E06C2F8EE896E035
:1018D0000E948E0867EA73E08EE896E00E94230B70
:1018E0008DB79EB708960FB6F8949EBF0FBE8DBFFA
:1018F000DF91CF911F910F91FF90DF90CF900895CE
:10190000CF92DF92EF92FF920F931F93CF938C01B0
:101910006A017B0120E00E94340C4C9BA1C0C0E016
:1019200019990CC0C43008F49EC008C0199BFECFA2
:101930002C2FB701A601C8010E94340C1A990BC0C4
:10194000C11193C094C01A9BFECF2C2FB701A601E2
:10195000C8010E94340C4A993BC0C13089F028F07C
:10196000C330C9F0C43011F12BC020E030E040E2B8
:1019700051E4C701B6010E94DA136B017C0120C05B
:1019800020E030E040E85FE3C701B6010E94DA13CF
:101990006B017C0115C02DEC3CEC4CEC5DE3C70108
:1019A000B6010E94DA136B017C010AC02AE037ED10
:1019B00043E25CE3C701B6010E94DA136B017C01CC
:1019C0004A9BFECF2C2FB701A601C8010E94340C00
:1019D0004B993BC0C13089F028F0C330C9F0C43006
:1019E00011F12BC020E030E040E251E4C701B60124
:1019F0000E94D9136B017C0120C020E030E040E858
:101A00005FE3C701B6010E94D9136B017C0115C0C9
:101A10002DEC3CEC4CEC5DE3C701B6010E94D91300
:101A20006B017C010AC02AE037ED43E25CE3C701A9
:101A3000B6010E94D9136B017C014B9BFECF2C2F6A
:101A4000B701A601C8010E94340C2FE78AE196E095
:101A5000215080409040E1F700C000004C9960CFD9
:101A60004C9BFECF07C0CF5F61CFC1506CCF4A9B6C
:101A70007CCFAECFC701B601CF911F910F91FF90E0
:101A8000EF90DF90CF9008952F923F924F925F9208
:101A90006F927F928F929F92AF92BF92CF92DF927E
:101AA000EF92FF920F931F93CF93DF93CDB7DEB7E3
:101AB00064970FB6F894DEBF0FBECDBF462E572EEB
:101AC000682E792E322EB32EA42E252E8EE896E087
:101AD0000E94B50940E060E08EE896E00E949F0811
:101AE0002F92AF92BF923F927F926F925F924F92EE
:101AF00089EA93E09F938F938EE896E09F938F936C
:101B00000E94380B84EF93E00E94A4137F926F929F
:101B10005F924F922F92AF92BF923F9288E094E0F3
:101B20009F938F930E94B31386E294E00E94A413C4
:101B30000FB6F894DEBF0FBECDBF4C99FECF4C9BC5
:101B4000FECF0E94DC016E877F87888B998B242DC6
:101B5000352D462D572DBE85AF85E88919896B2F08
:101B60007A2F8E2F912F0E94A31520E030E040E0C5
:101B700050E40E949E1518160CF4459A83E884BD23
:101B800085B5816085BD1FEF0E9444026B017C0119
:101B90009B01AC01642D752D862D972D0E949E15FD
:101BA00018160CF09AC187B58F3F09F092C195C104
:101BB00087B581119EC1115039F78DE08093810066
:101BC00019821A821B821C821D821E821F82188625
:101BD000198600E01B8B0C8B3A86352C572CBB8664
:101BE000AC862D86242C462C0AC19B892C89809199
:101BF0009F068823E1F39B8B2C8B10929F0685B167
:101C000031E0832785B98C898F5F8C8B8C3320F0F2
:101C10009B899F5F9B8B1C8AAB89AC3320F0B98575
:101C2000BF5FB9871B8A0E944402A62EB72E082FD9
:101C3000192F762F272F3B2D402F512F622D732DDB
:101C4000842D952D0E949E1518160CF05AC187B54B
:101C50008F3F09F052C155C187B5811160C10E9403
:101C6000DC01962E872E782E692E69817A818B81F0
:101C70009C810E94EC146B017C0120E030E04AE77B
:101C800054E46A2D7B2D802F912F0E94A3159B0178
:101C9000AC01C701B6010E94DA130E94BD1469832A
:101CA0007A838B839C836D817E818F8198850E944E
:101CB000EC146B017C012A2D3B2D402F512F692DF7
:101CC000782D872D962D0E94A31520E030E04AE75D
:101CD00054E40E94A3159B01AC01C701B6010E9408
:101CE000DA130E94BD146D837E838F83988740E052
:101CF00060E08EE896E00E949F08E7B5EA8B6D8170
:101D00007E818F81988520E13EE040E050E00E9496
:101D1000A019D22EE32E69817A818B819C8120E1EA
:101D20003EE040E050E00E94A019F22EC32E1F9228
:101D3000FA89FF931F922C892F931F923B893F931F
:101D40001F9289858F93EF92DF92CF92FF925F92DD
:101D50004F923F922F921F930F93BF92AF929D8508
:101D60009F93AC85AF93BB85BF93EA85EF936F924A
:101D70007F928F929F92A6E4B4E0BF93AF938EE8D8
:101D800096E09F938F930E94380B87B50FB6F89417
:101D9000DEBF0FBECDBF1F928F931F923C893F9332
:101DA0001F928B898F931F9299859F93EF92DF9259
:101DB000CF92FF921F930F93BF92AF926F927F9239
:101DC0008F929F92ABE9B4E0BF93AF930E94B3139D
:101DD0000FB6F894DEBF0FBECDBF292D382D472D8D
:101DE000562DBA85AB851C850D856B2F7A2F812FDB
:101DF000902F0E949E15181644F04C9B06C08091AF
:101E00009F06882309F4F1CEF8CE1B890C89642C37
:101E1000422C752C532C3A84BB84AC842D841092B4
:101E2000810085B585BD14BC459828985F9A8EE8D9
:101E300096E00E94B50940E060E08EE896E00E94DE
:101E40009F081F920F931F921F931F9239853F93F4
:101E50000F2EF0E1CF2EFEE0DF2EE12CF12CF02D45
:101E60006D817E818F819885A70196010E94A019BE
:101E70003F932F9369817A818B819C81A701960181
:101E80000E94A0193F932F937F926F925F924F927F
:101E90002F92AF92BF923F9289898F9398899F9397
:101EA000AF85AF93BE85BF9384EC94E09F938F93EF
:101EB0008EE896E09F938F930E94380B0FB6F894AC
:101EC000DEBF0FBECDBF4C9BFECF4C99FECF5F98BF
:101ED0002AC087B58F5F87BD6ECEA7019601642D9E
:101EE000752D862D972D0E94461488230CF460CE04
:101EF00062CE87B5815087BD5ECE87B58F5F87BDC7
:101F0000AECE2A2D3B2D402F512F622D732D842DC7
:101F1000952D0E94461488230CF49ECEA0CE87B542
:101F2000815087BD9CCE64960FB6F894DEBF0FBE7D
:101F3000CDBFDF91CF911F910F91FF90EF90DF9078
:101F4000CF90BF90AF909F908F907F906F905F9059
:101F50004F903F902F9008952F923F924F925F9213
:101F60006F927F928F929F92AF92BF920F931F9327
:101F7000CF93DF934C9BFECF23E224BD25B5216098
:101F800025BD4C9960C06CC00E94DC01162F072F44
:101F9000782E692E2DEC3CEC4CE45DE3C501B401D8
:101FA0000E94D9139B01AC01612F702F872D962DB4
:101FB0000E94461488230CF05FC088B58F3F09F05B
:101FC00057C05AC088B581116BC02197E9F60E94AD
:101FD0001002462E572EC82FD92F8EE896E00E9469
:101FE000B50940E060E08EE896E00E948E0888B572
:101FF0001F928F93242D352D4C2F5D2F612F702F25
:10200000872D962D0E94A3159F938F937F936F9397
:10201000DF93CF935F924F926F927F920F931F93B4
:102020003F922F928EE896E09F938F930E94380BF9
:102030008DB79EB742960FB6F8949EBF0FBE8DBF68
:102040004C9909C00DC04B015C010F2EF7E12F2EFA
:10205000F5E03F2EF02D90E0C92F81E0D82F94CFEE
:1020600085B585BD14BC109281004C9BFECF1CC071
:1020700088B58F5F88BDA9CF2DEC3CEC4CE45DE3C7
:10208000C501B4010E94DA139B01AC01612F702FCE
:10209000872D962D0E949E1518160CF493CF95CF80
:1020A00088B5815088BD91CFDF91CF911F910F915D
:1020B000BF90AF909F908F907F906F905F904F9068
:1020C0003F902F9008952F923F924F925F926F9280
:1020D0007F928F929F92AF92BF920F931F93CF9355
:1020E000DF934C9BFECF23E224BD25B5216025BDA7
:1020F0004C9960C06CC00E941002162F072F782EDA
:10210000692E2DEC3CEC4CE45DE3C501B4010E946A
:10211000D9139B01AC01612F702F872D962D0E9442
:10212000461488230CF05FC088B58F3F09F057C074
:102130005AC088B581116BC02197E9F60E94DC0175
:10214000462E572EC82FD92F8EE896E00E94B5094B
:1021500040E060E08EE896E00E948E0888B51F920D
:102160008F93242D352D4C2F5D2F612F702F872DB0
:10217000962D0E94A3159F938F937F936F936F92D9
:102180007F920F931F93DF93CF935F924F923F9273
:102190002F928EE896E09F938F930E94380B8DB715
:1021A0009EB742960FB6F8949EBF0FBE8DBF4C9956
:1021B00009C00DC04B015C010F2EF7E12F2EF5E099
:1021C0003F2EF02D90E0C92F81E0D82F94CF85B518
:1021D00085BD14BC109281004C9BFECF1CC088B5FD
:1021E0008F5F88BDA9CF2DEC3CEC4CE45DE3C501CD
:1021F000B4010E94DA139B01AC01612F702F872D6F
:10220000962D0E949E1518160CF493CF95CF88B585
:10221000815088BD91CFDF91CF911F910F91BF90D9
:10222000AF909F908F907F906F905F904F903F9076
:102230002F9008952F923F924F925F926F927F92CC
:102240008F929F92AF92BF92CF92DF92EF92FF92C6
:102250000F931F93CF93DF93CDB7DEB72C970FB6B5
:10226000F894DEBF0FBECDBF69837A838B839C83D6
:10227000288739874A875B874C9BFECF83E284BDE2
:1022800085B5816085BD77247394412C6624639461
:102290000F2EF6E42F2EF5E03F2EF02D4D82B4C028
:1022A000E12CFF24F39488849984AA84BB843F8220
:1022B0002E82372C0E941002262E7C87182F092F81
:1022C0000E94DC01762E572EC82ED92E29813A8104
:1022D0004B815C810E94461488230CF49FC0A501A9
:1022E0009401AC85622D7A2F812F902F0E949E152C
:1022F00018160CF13320F9F02DEC3CEC4CE45DE3C6
:1023000069817A818B819C810E94D9139B01AC01E8
:10231000672D752D8C2D9D2D0E94461488230CF061
:102320008FC088B58F3F09F086C08AC088B58111FB
:102330009EC0362C1DC02DEC3CEC4CE45DE3C50189
:10234000B4010E94D9139B01AC01AC85622D7A2F98
:10235000812F902F0E94461488230CF092C088B5DC
:102360008F3F09F089C08DC088B58111A0C03D8024
:1023700081E0E81AF10809F09DCFBC2CAD2CD72CD8
:10238000732CF22CEC842E803F808EE896E00E9425
:10239000B509442D642D8EE896E00E948E0888B51C
:1023A0001F928F932F2D3E2D412F502F6D2D752D68
:1023B0008B2D9A2D0E94A3159F938F937F936F93DC
:1023C0000F931F93EF92FF92AF92BF925F92DF92B3
:1023D0003F922F928EE896E09F938F930E94380B46
:1023E0000FB6F894DEBF0FBECDBF772039F06CE298
:1023F00072E08EE896E00E94230B06C064E272E071
:102400008EE896E00E94230B4C994ACF85B585BD96
:1024100014BC109281004C9BFECF4EC0A5019401CC
:10242000AC85622D7A2F812F902F0E949E15181651
:102430000CF481CF61CF88B58F5F88BD362C98CFE3
:102440002DEC3CEC4CE45DE369817A818B819C81CD
:102450000E94DA139B01AC01672D752D8C2D9D2DEB
:102460000E949E1518160CF461CF362C81CF88B5CA
:10247000815088BD362C7CCF88B58F5F88BD3D806C
:1024800077CF2DEC3CEC4CE45DE3C501B4010E9438
:10249000DA139B01AC01AC85622D7A2F812F902F2E
:1024A0000E949E1518160CF45FCF3D8061CF88B551
:1024B000815088BD3D805CCF2C960FB6F894DEBF6E
:1024C0000FBECDBFDF91CF911F910F91FF90EF9085
:1024D000DF90CF90BF90AF909F908F907F906F9044
:1024E0005F904F903F902F9008958BB18C618BB986
:1024F00085B1866085B9579A209A8AB180668AB973
:1025000087B1806387B9449A109285001092840045
:102510008BE49CE49093890080938800EFE6F0E0E0
:1025200080818260808378940E94D3010E94630B33
:102530008EE896E00E94B5096CE071E0809116018A
:10254000909117010E94F20B823009F492C030F48E
:10255000882359F0813009F473C0EACF833009F43D
:10256000A1C0843009F4B3C0E3CF60E071E0809192
:102570000A0190910B010E94F20B813009F138F0B1
:10258000823009F447C0833009F44FC0D1CF40E016
:1025900050E060E87FE386E795E00E94800C6B01E5
:1025A0007C0146E656E666E870E48FE895E00E9416
:1025B000800C9B01AC01C701B6010E94A302B8CFF9
:1025C00040E050E060E87FE38AE795E00E94800CFD
:1025D0006B017C0140E050E060E87FE387EA95E032
:1025E0000E94800C4B015C0140E050E060EE70E422
:1025F00082EB95E00E94800C0E94BD14C62FC5019D
:10260000B4010E94BD14462F2C2FC701B6010E94B1
:10261000B4058ECF40E050E060EA70E486EC95E0CF
:102620000E94800C0E94AC0F83CF40E050E060E835
:102630007FE389ED95E00E94800C0E94631078CFC3
:1026400040E050E060E87FE38CEE95E00E94800C73
:102650006B017C0140E050E060E87FE384E096E0BD
:102660000E94800C9B01AC01C701B6010E94440D81
:102670005FCF40E050E060EA70E486EC95E00E94B5
:10268000800C6B017C0140E050E060E87FE388E172
:1026900096E00E94800C9B01AC01C701B6010E942C
:1026A0001A1146CF8EE896E00E94B50940E060E03E
:1026B0008EE896E00E949F086EE573E08EE896E053
:1026C0000E94230B4C99FECF4C9BFECF31CF98E05C
:1026D00088E10FB6F894A895809360000FBE9093A0
:1026E0006000FFCF1F920F920FB60F9211248F93AD
:1026F00081E080939F068F910F900FBE0F901F90E7
:10270000189544984AE64A95F1F700C020E030E079
:1027100090E0AC01022E02C0559547950A94E2F76D
:1027200040FF02C0449A01C044984AE64A95F1F736
:1027300000C02F5F3F4F2830310559F7449A8AE691
:102740008A95F1F700C00895CF93DF93EC0188815B
:10275000882331F021960E94811389918111FBCF4A
:10276000DF91CF910895CF93DF93CDB7DEB7C054FB
:10277000D1090FB6F894DEBF0FBECDBF9E012B5B13
:102780003F4FF901419151919F016FE370E0CE01FC
:1027900001960E94421BCE0101960E94A413C05CC8
:1027A000DF4F0FB6F894DEBF0FBECDBFDF91CF91E4
:1027B00008955058BB27AA270E94F1130C94641562
:1027C0000E94561538F00E945D1520F039F49F3FA5
:1027D00019F426F40C9453150EF4E095E7FB0C94D1
:1027E0004D15E92F0E94751558F3BA176207730744
:1027F0008407950720F079F4A6F50C9497150EF44C
:10280000E0950B2EBA2FA02D0B01B90190010C0100
:10281000CA01A0011124FF27591B99F0593F50F418
:10282000503E68F11A16F040A22F232F342F442770
:10283000585FF3CF469537952795A795F040539568
:10284000C9F77EF41F16BA0B620B730B840BBAF038
:102850009150A1F0FF0FBB1F661F771F881FC2F7A3
:102860000EC0BA0F621F731F841F48F487957795B7
:102870006795B795F7959E3F08F0B0CF9395880F71
:1028800008F09927EE0F9795879508950E942915CE
:1028900008F481E008950E945F140C9464150E946E
:1028A0005D1558F00E94561540F029F45F3F29F05D
:1028B0000C944D1551110C9498150C9453150E94BD
:1028C000751568F39923B1F3552391F3951B550BB7
:1028D000BB27AA2762177307840738F09F5F5F4FF3
:1028E000220F331F441FAA1FA9F335D00E2E3AF032
:1028F000E0E832D091505040E695001CCAF72BD04A
:10290000FE2F29D0660F771F881FBB1F261737079A
:102910004807AB07B0E809F0BB0B802DBF01FF27CC
:1029200093585F4F3AF09E3F510578F00C944D1547
:102930000C9498155F3FE4F3983ED4F38695779511
:102940006795B795F7959F5FC9F7880F911D969585
:10295000879597F90895E1E0660F771F881FBB1FE1
:10296000621773078407BA0720F0621B730B840B8E
:10297000BA0BEE1F88F7E09508950E947D1588F048
:102980009F5798F0B92F9927B751B0F0E1F0660F33
:10299000771F881F991F1AF0BA95C9F714C0B13074
:1029A00091F00E949715B1E008950C949715672F48
:1029B000782F8827B85F39F0B93FCCF386957795A3
:1029C0006795B395D9F73EF490958095709561958C
:1029D0007F4F8F4F9F4F0895E89409C097FB3EF4B7
:1029E00090958095709561957F4F8F4F9F4F99235C
:1029F000A9F0F92F96E9BB279395F69587957795DA
:102A00006795B795F111F8CFFAF4BB0F11F460FF99
:102A10001BC06F5F7F4F8F4F9F4F16C0882311F0F1
:102A200096E911C0772321F09EE8872F762F05C005
:102A3000662371F096E8862F70E060E02AF09A95A0
:102A4000660F771F881FDAF7880F9695879597F995
:102A50000895990F0008550FAA0BE0E8FEEF16162F
:102A60001706E807F907C0F012161306E407F50782
:102A700098F0621B730B840B950B39F40A2661F0F6
:102A8000232B242B252B21F408950A2609F4A14099
:102A9000A6958FEF811D811D089597F99F6780E8A6
:102AA00070E060E008959FEF80EC089500240A94A0
:102AB0001616170618060906089500240A94121619
:102AC0001306140605060895092E0394000C11F44C
:102AD000882352F0BB0F40F4BF2B11F460FF04C0F9
:102AE0006F5F7F4F8F4F9F4F089557FD9058440F52
:102AF000551F59F05F3F71F04795880F97FB991F5D
:102B000061F09F3F79F08795089512161306140619
:102B1000551FF2CF4695F1DF08C0161617061806A6
:102B2000991FF1CF86957105610508940895E89481
:102B3000BB2766277727CB0197F908950E942915AF
:102B400008F48FEF08950E94B6150C9464150E9446
:102B5000561538F00E945D1520F0952311F00C9465
:102B60004D150C94531511240C9498150E9475154D
:102B700070F3959FC1F3950F50E0551F629FF001D0
:102B8000729FBB27F00DB11D639FAA27F00DB11DE9
:102B9000AA1F649F6627B00DA11D661F829F222772
:102BA000B00DA11D621F739FB00DA11D621F839FF9
:102BB000A00D611D221F749F3327A00D611D231FCF
:102BC000849F600D211D822F762F6A2F11249F571D
:102BD00050409AF0F1F088234AF0EE0FFF1FBB1F20
:102BE000661F771F881F91505040A9F79E3F5105DF
:102BF00080F00C944D150C9498155F3FE4F3983ECB
:102C0000D4F3869577956795B795F795E7959F5F88
:102C1000C1F7FE2B880F911D9695879597F908951A
:102C2000A3E1B0E0E6E1F6E10C94D1196C014B01AF
:102C30002A01FC0117821682838181FF43C3AE0102
:102C40004F5F5F4F3A01F6019381F40193FD859147
:102C500093FF81914F01882309F430C3853239F401
:102C600093FD859193FF81914F01853239F4B6012F
:102C700090E00E940A1B52012501E5CF10E0F12CE3
:102C800020E02032A0F48B3269F030F4803259F029
:102C9000833269F420612CC08D3239F0803339F4ED
:102CA000216026C02260246023C0286021C027FD47
:102CB00027C030ED380F3A3078F426FF06C0FAE02E
:102CC0001F9F300D1124132F13C04AE0F49E300DC6
:102CD0001124F32E20620CC08E3221F426FDEEC2A8
:102CE000206406C08C3611F4206802C0883641F496
:102CF000F40193FD859193FF81914F018111C1CF23
:102D00009BEB980F933018F42061805E06C09BE91E
:102D1000980F933008F071C12F7E26FF16E02F73B5
:102D2000322E853619F42064322E08C0863621F4FE
:102D3000F22FF0683F2E02C01111115037FE07C06C
:102D40001C3350F4EE24E394E10E27E00BC018305E
:102D500038F027E017E005C027E04CE3E42E02C07E
:102D6000212FE12C520144E0A40EB11CF20160813C
:102D70007181828193810E2DA3010E941C1A2C0166
:102D8000098100FF02C003FF07C031FC08C032FE0A
:102D900009C030E2232E07C02DE2222E04C09BE2A0
:102DA000292E01C0212C802F8C7019F0211068C2AF
:102DB000A8C237FE0FC0E40C04FF04C08A8181332F
:102DC00009F4EA941E1474F5F8E0FE1578F588E02D
:102DD000E82E2CC036FC2AC0812F90E08415950582
:102DE0009CF02CEF42162FEF520674F0432D4068F2
:102DF000342E0AC0E2E0F0E0EC0FFD1FE10FF11D00
:102E00008081803319F411501111F4CF37FE0EC0B8
:102E1000EE24E394E10E812F90E0481659062CF43D
:102E2000141904C0EE24E39401C010E037FE06C07C
:102E30001414150434F4C201019605C085E090E035
:102E400002C081E090E021100196112331F0212F82
:102E500030E02F5F3F4F820F931F2F2D30E08217FE
:102E6000930714F4F81A01C0F12C832D897049F4EA
:102E7000FF2039F0B60180E290E00E940A1BFA942C
:102E8000F7CF222029F0B601822D90E00E940A1B84
:102E900033FC09C0FF2039F0B60180E390E00E94C6
:102EA0000A1BFA94F7CF37FE5AC0942D852D57FE92
:102EB00002C090E080E0292E382E20E030E0A20110
:102EC0004E1951095D874C87A201421953095F874A
:102ED0004E87612F70E044275527461B570B598BAF
:102EE000488B5FEF2516350649F4B6018EE290E077
:102EF0002A8B3B8B0E940A1B3B892A89421453046C
:102F00006CF04C855D854215530544F4EE85FF85D4
:102F1000E20FF31FE60DF71D818101C080E351E050
:102F2000251A31082F5F3F4F4889598924163506E5
:102F30004CF0B60190E02A8B3B8B0E940A1B2A8939
:102F40003B89CFCF2414350439F49A81963318F491
:102F5000953311F404FF81E3B60190E04BC08A8100
:102F6000813309F00F7EB60190E00E940A1B111117
:102F700005C034FC18C085E690E017C0B6018EE2AB
:102F800090E00E940A1B82E0EE24E394E80EF30135
:102F9000E80FF11D8081B60190E00E940A1B1150DC
:102FA0008E2D91F7E6CF85E490E0B6010E940A1BD2
:102FB00057FC05C04114510439F404FF05C0519475
:102FC000419451088DE201C08BE2B60190E00E946D
:102FD0000A1B80E39AE0491651042CF08F5F5AE0F7
:102FE000451A5108F7CFB60190E00E940A1BB601BE
:102FF000C201C0960E940A1B57C1833631F0833745
:1030000079F0833509F058C021C05201E2E0AE0EDC
:10301000B11CF2018081898301E010E0230114C01A
:103020005201F2E0AF0EB11CF2014080518026FF48
:1030300003C0612F70E002C06FEF7FEFC2012A8BE7
:103040000E94FF1A8C012A892F7715C05201F2E0E5
:10305000AF0EB11CF2014080518026FF03C0612FEA
:1030600070E002C06FEF7FEFC2012A8B0E94F41A5A
:103070008C012A892068322E23FD1AC08F2D90E002
:1030800008171907A8F4B60180E290E00E940A1B15
:10309000FA94F4CFF20137FC859137FE81912F012C
:1030A000B60190E00E940A1BF110FA940150110938
:1030B0000115110579F7F8C0843611F0893659F5F4
:1030C000520127FF09C0F4E0AF0EB11CF20160818C
:1030D0007181828193810AC0F2E0AF0EB11CF201CE
:1030E00060817181072E000C880B990B2F76322E90
:1030F00097FF09C090958095709561957F4F8F4F90
:103100009F4F2068322E2AE030E0A3010E946E1B00
:10311000E82EE6183FC0022F853721F40F7E2AE003
:1031200030E01DC0097F8F3691F018F4883559F0D2
:10313000C5C0803719F0883711F0C0C0006104FFA6
:1031400009C0046007C024FF08C0066006C028E06C
:1031500030E005C020E130E002C020E132E0520161
:1031600007FF09C0F4E0AF0EB11CF201608171816C
:103170008281938108C0F2E0AF0EB11CF201608140
:10318000718180E090E0A3010E946E1BE82EE6189A
:103190000F77302E36FE0BC0332D3E7FE11650F4F4
:1031A00034FE0AC032FC08C0332D3E7E05C00E2D11
:1031B000332D03C00E2D01C0012F34FF0CC0FE01C2
:1031C000EE0DF11D8081803311F4397E08C032FF8D
:1031D00005C00E5F04C0832F867809F00F5F33FDB2
:1031E00013C030FF06C01E2D0F1518F41F0D101B45
:1031F0000F2D0F1568F4B60180E290E03B8B0E9422
:103200000A1B0F5F3B89F5CF0F1510F4F01A01C0B0
:10321000F12C34FF12C0B60180E390E03B8B0E949A
:103220000A1B3B8932FF17C031FD03C088E790E0DD
:1032300002C088E590E0B6010CC0832F867859F073
:1032400031FF02C08BE201C080E237FD8DE2B601A2
:1032500090E00E940A1BE11638F4B60180E390E08A
:103260000E940A1B1150F7CFEA94F301EE0DF11DF5
:103270008081B60190E00E940A1BE110F5CF14C0D6
:10328000F4E0FF1558F584E0F81A33FE1EC0211053
:1032900026C003FF2AC008E610E0F32DF0713F2E90
:1032A000F8018491811124C0FF2009F4E5CCB60116
:1032B00080E290E00E940A1BFA94F6CFF601868124
:1032C000978126C08FEF9FEF23C0B60180E290E088
:1032D0000E940A1BFA94F110F8CFD9CFF12CB60155
:1032E000822D90E00E940A1BD4CF0CE610E0D5CFCF
:1032F00031108052B60190E00E940A1B0F5F1F4FF1
:10330000CFCF23E02F1510F483E0BECFF12CC1CF37
:103310006396E2E10C94ED1997FB072E16F40094E6
:1033200007D077FD09D00E94081A07FC05D03EF4AB
:10333000909581959F4F0895709561957F4F089561
:10334000A1E21A2EAA1BBB1BFD010DC0AA1FBB1FA9
:10335000EE1FFF1FA217B307E407F50720F0A21B1B
:10336000B30BE40BF50B661F771F881F991F1A9488
:1033700069F760957095809590959B01AC01BD01B2
:10338000CF010895A29FB001B39FC001A39F700D0C
:10339000811D1124911DB29F700D811D1124911D5D
:1033A00008952F923F924F925F926F927F928F92E9
:1033B0009F92AF92BF92CF92DF92EF92FF920F93C4
:1033C0001F93CF93DF93CDB7DEB7CA1BDB0B0FB6CE
:1033D000F894DEBF0FBECDBF09942A88398848888B
:1033E0005F846E847D848C849B84AA84B984C88421
:1033F000DF80EE80FD800C811B81AA81B981CE0F18
:10340000D11D0FB6F894DEBF0FBECDBFED010895FC
:10341000AA1BBB1B51E107C0AA1FBB1FA617B707FA
:1034200010F0A61BB70B881F991F5A95A9F7809516
:103430009095BC01CD010895283008F027E033278E
:10344000DA01990F311D87FD9160009661057105C4
:1034500039F432602E5F3D9330E32A95E1F7089509
:103460009F3F30F080387105610509F03C5F3C5F9B
:103470003D93913008F08068911DDF93CF931F93A7
:103480000F93FF92EF92192F987F9695E92F9695BB
:103490009695E90FFF27E653FF4F99273327EE2430
:1034A000FF24A701E70105900894079428F4360F3C
:1034B000E71EF81E491F511D660F771F881F991FB1
:1034C0000694A1F70590079428F4E70EF81E491F0B
:1034D000561FC11D770F881F991F661F0694A1F7FD
:1034E0000590079428F4F80E491F561FC71FD11DD9
:1034F000880F991F661F771F0694A1F70590079400
:1035000020F4490F561FC71FD81F990F661F771F3A
:10351000881F0694A9F784911095177041F0D695ED
:10352000C79557954795F794E7941A95C1F7E0E743
:10353000F0E06894159015913591659195910590FD
:103540007FE27395E118F10A430B560BC90BD009C2
:10355000C0F7E10CF11E431F561FC91FD01D7EF49A
:10356000703311F48A95E6CFE894015030F0080FDB
:103570000AF40027021708F4202F2395022F7A332C
:1035800028F079E37D932A95E9F710C07D932A9579
:1035900089F6069497956795379517951794E118CE
:1035A000F10A430B560BC90BD00998F023957E9175
:1035B00073957A3308F070E37C932013B8F77E910B
:1035C00070617D9330F0839571E37D9370E32A956C
:1035D000E1F71124EF90FF900F911F91CF91DF91B0
:1035E000992787FD90950895FC01059061507040E2
:1035F0000110D8F7809590958E0F9F1F0895FC01BC
:103600006150704001900110D8F7809590958E0F11
:103610009F1F08950F931F93CF93DF93FB01238187
:1036200021FD03C08FEF9FEF28C022FF16C0468107
:103630005781248135814217530744F4A081B18119
:103640009D012F5F3F4F318320838C9326813781EB
:103650002F5F3F4F3783268310C0EB01092F182FB0
:103660000084F185E02D0995892BE1F68E819F81FB
:1036700001969F838E83812F902FDF91CF911F9191
:103680000F910895AEE0B0E0E8E4FBE10C94DF199F
:103690008C01CA0146E04C831A83098377FF02C07C
:1036A00060E070E8FB013197FE83ED83A901BC0166
:1036B000CE0101960E9410164D815E8157FD0AC011
:1036C0002F813885421753070CF49A01F801E20F55
:1036D000F31F10822E96E4E00C94FB19FA01AA273E
:1036E000283051F1203181F1E8946F936E7F6E5F45
:1036F0007F4F8F4F9F4FAF4FB1E03ED0B4E03CD0F3
:10370000670F781F891F9A1FA11D680F791F8A1FD5
:10371000911DA11D6A0F711D811D911DA11D20D03C
:1037200009F468943F912AE0269F11243019305DF6
:103730003193DEF6CF010895462F4770405D4193E7
:10374000B3E00FD0C9F7F6CF462F4F70405D4A3334
:1037500018F0495D31FD4052419302D0A9F7EACFFC
:10376000B4E0A6959795879577956795BA95C9F72B
:1037700000976105710508959B01AC010A2E06941E
:103780005795479537952795BA95C9F7620F731FD7
:0C379000841F951FA01D0895F894FFCF22
:10379C002A0635062C0224023F064C065D065A0604
:1037AC006406710677067F065245564945573A0A14
:1037BC0049636872673A202025342E3266204156C0
:1037CC006D61783A202025352E32662056506C7566
:1037DC0067696E2062617474657279616E642070C1
:1037EC00726573730A6D6964646C652062757474B8
:1037FC006F6E005354415254494E472043432D435E
:10380C0056204348415247450A00566D61783A208C
:10381C0025352E326620562C20496D61783A2025AC
:10382C00342E326620560A00563B493B744872735C
:10383C003A744D696E3A745365633B50574D3B7403
:10384C00656D700A004348415247494E473A0A4950
:10385C003A2025342E32662F25342E3266204156DE
:10386C003A25352E32662F25352E326656453A20AE
:10387C00253564206D41682020253032643A25308E
:10388C0032643A25303264202533642043002535D8
:10389C002E32663B25342E32663B253032643A2577
:1038AC003032643A253032643B253033643B253367
:1038BC00643B0A00434F4E5354204300434F4E5336
:1038CC00542056004348415247494E470A46494EF8
:1038DC0049534845440A453A20253564206D4168D2
:1038EC000A453A20253564206D57680A543A20253C
:1038FC003032643A253032643A253032642020204C
:10390C0000434852472053554343455353004241CB
:10391C00545420544F4F205741524D210042544E85
:10392C00205052455353454400434841524745208B
:10393C00454E4445440A00566D61783A2025352E93
:10394C00326620562C20496D61783A2025342E326F
:10395C006620410A004E6943642F4E694D4820434E
:10396C00485247493A2025342E32662F25342E32C0
:10397C00662041563A25352E32662F25352E326675
:10398C0056253032643A253032643A253032642080
:10399C002533642043004348415247494E470A4669
:1039AC00494E49534845440A453A20253564206D13
:1039BC0041680A453A20253564206D57680A543A07
:1039CC0020253032643A253032643A253032640096
:1039DC004F564552564F4C54414745002D44454C8B
:1039EC00544120560054494D45204F555400204118
:1039FC0056522043686172676572202020627920DC
:103A0C004D2E2044616E656B202056312E313020B6
:103A1C0020286329323031362020206D6164616E9C
:103A2C00656B0A202020706F73742E637A003E0041
:103A3C002530352E3266005E005245564945573AC0
:103A4C000A496469733A20202025342E32662041BD
:103A5C00566D696E3A202025352E32662056506CF4
:103A6C007567696E2062617474657279616E642029
:103A7C0070726573730A6D6964646C652062757429
:103A8C00746F6E005354415254494E47204449536D
:103A9C004348415247450A00566D696E3A20253518
:103AAC002E326620562C20496469733A2025342E18
:103ABC00326620560A00562C492C6D41682C6D57E5
:103ACC00682C744872732C744D696E2C7453656336
:103ADC002C50574D0A004449534348415247453AEC
:103AEC000A563A2025352E32662F25352E32664958
:103AFC003A2025352E33662F25352E3366453A2050
:103B0C002020253564206D4168453A20202025353C
:103B1C0064206D5768253032643A253032643A257A
:103B2C00303264202020253033640025352E326657
:103B3C003B25342E32663B2535643B2535643B25CD
:103B4C003032643A253032643A253032643B2530C9
:103B5C0033640A00524553554C54533A0A563A2092
:103B6C0025352E32662D25352E3266493A202020F9
:103B7C0020202025342E32662041453A2020202555
:103B8C003564206D4168453A202020253564206D30
:103B9C005768743A20202020253032643A25303280
:103BAC00643A2530326400566F75743A2025352EF0
:103BBC003266200A496F75743A2025352E326620FC
:103BCC000A503A2025352E326620570A50574D3A66
:103BDC00202530336400566F75743A2025352E320B
:103BEC0066200A496F75743A2025352E3266200AF4
:103BFC00503A2025352E326620570A50574D3A2020
:103C0C00253033640A006D617820636861726769DE
:103C1C006E670A63757272656E74205B415D006D30
:103C2C00617820626174746572790A766F6C746164
:103C3C006765205B565D0023206F660A63656C6CBC
:103C4C0073006368617267696E670A74696D6520D9
:103C5C005B4872735D006F75747075740A766F6C67
:103C6C0074616765205B565D006F75747075740ABE
:103C7C0063757272656E74205B415D006469736379
:103C8C0068617267696E670A63757272656E74201B
:103C9C005B415D006D696E696D616C0A766F6C7469
:103CAC00616765205B415D0063757272656E740AB5
:103CBC006C696D6974205B415D004C692D496F6EB8
:103CCC002F534C41004E6943642F4E694D480042BE
:103CDC0041434B20544F204D454E55004261747466
:103CEC0065727920747970653A00444953434841B0
:103CFC0052474500504F57455220535550504C5940
:103D0C000041424F555400524553544152540053B4
:0E3D1C00656C656374206D6F64653A2000006D
:00000001FF
